{
  "contractName": "SimpleStorage",
  "abi": [
    {
      "inputs": [
        {
          "internalType": "string",
          "name": "",
          "type": "string"
        }
      ],
      "name": "nameToFavoriteNum",
      "outputs": [
        {
          "internalType": "uint256",
          "name": "",
          "type": "uint256"
        }
      ],
      "stateMutability": "view",
      "type": "function",
      "constant": true
    },
    {
      "inputs": [
        {
          "internalType": "uint256",
          "name": "",
          "type": "uint256"
        }
      ],
      "name": "people",
      "outputs": [
        {
          "internalType": "string",
          "name": "name",
          "type": "string"
        },
        {
          "internalType": "uint256",
          "name": "favoriteNum",
          "type": "uint256"
        }
      ],
      "stateMutability": "view",
      "type": "function",
      "constant": true
    },
    {
      "inputs": [],
      "name": "retrieve",
      "outputs": [
        {
          "internalType": "uint256",
          "name": "",
          "type": "uint256"
        }
      ],
      "stateMutability": "view",
      "type": "function",
      "constant": true
    },
    {
      "inputs": [],
      "name": "getPeople",
      "outputs": [
        {
          "components": [
            {
              "internalType": "string",
              "name": "name",
              "type": "string"
            },
            {
              "internalType": "uint256",
              "name": "favoriteNum",
              "type": "uint256"
            }
          ],
          "internalType": "struct SimpleStorage.People[]",
          "name": "",
          "type": "tuple[]"
        }
      ],
      "stateMutability": "view",
      "type": "function",
      "constant": true
    },
    {
      "inputs": [
        {
          "internalType": "string",
          "name": "_name",
          "type": "string"
        },
        {
          "internalType": "uint256",
          "name": "_favoriteNum",
          "type": "uint256"
        }
      ],
      "name": "addPerson",
      "outputs": [],
      "stateMutability": "nonpayable",
      "type": "function"
    }
  ],
  "bytecode": "0x608060405234801561001057600080fd5b50610ba8806100206000396000f3fe608060405234801561001057600080fd5b50600436106100575760003560e01c80632e64cec11461005c5780634f995d081461007a5780636f760f4114610098578063827a5de3146100b45780639e7a13ad146100e4575b600080fd5b610064610115565b60405161007191906103a5565b60405180910390f35b61008261011e565b60405161008f919061055e565b60405180910390f35b6100b260048036038101906100ad91906106f5565b610219565b005b6100ce60048036038101906100c99190610751565b6102a2565b6040516100db91906103a5565b60405180910390f35b6100fe60048036038101906100f9919061079a565b6102d0565b60405161010c929190610811565b60405180910390f35b60008054905090565b60606002805480602002602001604051908101604052809291908181526020016000905b82821015610210578382906000526020600020906002020160405180604001604052908160008201805461017590610870565b80601f01602080910402602001604051908101604052809291908181526020018280546101a190610870565b80156101ee5780601f106101c3576101008083540402835291602001916101ee565b820191906000526020600020905b8154815290600101906020018083116101d157829003601f168201915b5050505050815260200160018201548152505081526020019060010190610142565b50505050905090565b60026040518060400160405280848152602001838152509080600181540180825580915050600190039060005260206000209060020201600090919091909150600082015181600001908161026e9190610a4d565b506020820151816001015550508060018360405161028c9190610b5b565b9081526020016040518091039020819055505050565b6001818051602081018201805184825260208301602085012081835280955050505050506000915090505481565b600281815481106102e057600080fd5b906000526020600020906002020160009150905080600001805461030390610870565b80601f016020809104026020016040519081016040528092919081815260200182805461032f90610870565b801561037c5780601f106103515761010080835404028352916020019161037c565b820191906000526020600020905b81548152906001019060200180831161035f57829003601f168201915b5050505050908060010154905082565b6000819050919050565b61039f8161038c565b82525050565b60006020820190506103ba6000830184610396565b92915050565b600081519050919050565b600082825260208201905092915050565b6000819050602082019050919050565b600081519050919050565b600082825260208201905092915050565b60005b8381101561042657808201518184015260208101905061040b565b60008484015250505050565b6000601f19601f8301169050919050565b600061044e826103ec565b61045881856103f7565b9350610468818560208601610408565b61047181610432565b840191505092915050565b6104858161038c565b82525050565b600060408301600083015184820360008601526104a88282610443565b91505060208301516104bd602086018261047c565b508091505092915050565b60006104d4838361048b565b905092915050565b6000602082019050919050565b60006104f4826103c0565b6104fe81856103cb565b935083602082028501610510856103dc565b8060005b8581101561054c578484038952815161052d85826104c8565b9450610538836104dc565b925060208a01995050600181019050610514565b50829750879550505050505092915050565b6000602082019050818103600083015261057881846104e9565b905092915050565b6000604051905090565b600080fd5b600080fd5b600080fd5b600080fd5b7f4e487b7100000000000000000000000000000000000000000000000000000000600052604160045260246000fd5b6105d682610432565b810181811067ffffffffffffffff821117156105f5576105f461059e565b5b80604052505050565b6000610608610580565b905061061482826105cd565b919050565b600067ffffffffffffffff8211156106345761063361059e565b5b61063d82610432565b9050602081019050919050565b82818337600083830152505050565b600061066c61066784610619565b6105fe565b90508281526020810184848401111561068857610687610599565b5b61069384828561064a565b509392505050565b600082601f8301126106b0576106af610594565b5b81356106c0848260208601610659565b91505092915050565b6106d28161038c565b81146106dd57600080fd5b50565b6000813590506106ef816106c9565b92915050565b6000806040838503121561070c5761070b61058a565b5b600083013567ffffffffffffffff81111561072a5761072961058f565b5b6107368582860161069b565b9250506020610747858286016106e0565b9150509250929050565b6000602082840312156107675761076661058a565b5b600082013567ffffffffffffffff8111156107855761078461058f565b5b6107918482850161069b565b91505092915050565b6000602082840312156107b0576107af61058a565b5b60006107be848285016106e0565b91505092915050565b600082825260208201905092915050565b60006107e3826103ec565b6107ed81856107c7565b93506107fd818560208601610408565b61080681610432565b840191505092915050565b6000604082019050818103600083015261082b81856107d8565b905061083a6020830184610396565b9392505050565b7f4e487b7100000000000000000000000000000000000000000000000000000000600052602260045260246000fd5b6000600282049050600182168061088857607f821691505b60208210810361089b5761089a610841565b5b50919050565b60008190508160005260206000209050919050565b60006020601f8301049050919050565b600082821b905092915050565b6000600883026109037fffffffffffffffffffffffffffffffffffffffffffffffffffffffffffffffff826108c6565b61090d86836108c6565b95508019841693508086168417925050509392505050565b6000819050919050565b600061094a6109456109408461038c565b610925565b61038c565b9050919050565b6000819050919050565b6109648361092f565b61097861097082610951565b8484546108d3565b825550505050565b600090565b61098d610980565b61099881848461095b565b505050565b5b818110156109bc576109b1600082610985565b60018101905061099e565b5050565b601f821115610a01576109d2816108a1565b6109db846108b6565b810160208510156109ea578190505b6109fe6109f6856108b6565b83018261099d565b50505b505050565b600082821c905092915050565b6000610a2460001984600802610a06565b1980831691505092915050565b6000610a3d8383610a13565b9150826002028217905092915050565b610a56826103ec565b67ffffffffffffffff811115610a6f57610a6e61059e565b5b610a798254610870565b610a848282856109c0565b600060209050601f831160018114610ab75760008415610aa5578287015190505b610aaf8582610a31565b865550610b17565b601f198416610ac5866108a1565b60005b82811015610aed57848901518255600182019150602085019450602081019050610ac8565b86831015610b0a5784890151610b06601f891682610a13565b8355505b6001600288020188555050505b505050505050565b600081905092915050565b6000610b35826103ec565b610b3f8185610b1f565b9350610b4f818560208601610408565b80840191505092915050565b6000610b678284610b2a565b91508190509291505056fea2646970667358221220c8e05c98700404f5818f91dcd2b633550c471464dd80bf584144eccebfd2dae664736f6c63430008130033",
  "immutableReferences": {},
  "source": "\r\n\r\n//SPDX-License-Identifier: MIT\r\npragma solidity 0.8.19;\r\n\r\ncontract SimpleStorage{\r\n    //Types: boolean, uint (siempre positivo), int (positivo o negativo), address, string, bytes\r\n\r\n    uint256 favoriteNum;\r\n\r\n    struct People {\r\n    string name;\r\n    uint256 favoriteNum;\r\n    }\r\n\r\n    mapping(string=>uint256) public nameToFavoriteNum;\r\n\r\n    People[] public people;      //Puedo especificar el num de elementos con People[n]  \r\n\r\n\r\n    function retrieve() public view returns(uint256){\r\n        return favoriteNum;\r\n  }\r\n  \r\n  function getPeople() external view returns(People[] memory){\r\n    return people;\r\n}\r\n\r\n\r\n\r\n    function addPerson(string memory _name, uint256 _favoriteNum) public{\r\n        people.push(People(_name, _favoriteNum)); //no necesita memory\r\n        nameToFavoriteNum[_name] = _favoriteNum; //asigno nmeros al nombre dado en un mapping\r\n    }  \r\n}",
  "sourcePath": "C:\\Users\\meika\\Documents\\01-BOOTCAMP\\BlockChain_U2B_Course\\contracts\\SimpleStorage.sol",
  "compiler": {
    "name": "solc",
    "version": "0.8.19+commit.7dd6d404.Emscripten.clang"
  },
  "schemaVersion": "3.4.16",
  "updatedAt": "2024-02-10T13:35:55.524Z",
  "networkType": "ethereum",
  "devdoc": {
    "kind": "dev",
    "methods": {},
    "version": 1
  },
  "userdoc": {
    "kind": "user",
    "methods": {},
    "version": 1
  }
}